{
  "contractName": "Faucet",
  "abi": [
    {
      "inputs": [],
      "name": "numOfFunders",
      "outputs": [
        {
          "internalType": "uint256",
          "name": "",
          "type": "uint256"
        }
      ],
      "stateMutability": "view",
      "type": "function",
      "constant": true
    },
    {
      "inputs": [],
      "name": "owner",
      "outputs": [
        {
          "internalType": "address",
          "name": "",
          "type": "address"
        }
      ],
      "stateMutability": "view",
      "type": "function",
      "constant": true
    },
    {
      "inputs": [],
      "name": "test3",
      "outputs": [
        {
          "internalType": "uint256",
          "name": "",
          "type": "uint256"
        }
      ],
      "stateMutability": "pure",
      "type": "function",
      "constant": true
    },
    {
      "stateMutability": "payable",
      "type": "receive",
      "payable": true
    },
    {
      "inputs": [],
      "name": "emitLog",
      "outputs": [
        {
          "internalType": "bytes32",
          "name": "",
          "type": "bytes32"
        }
      ],
      "stateMutability": "pure",
      "type": "function",
      "constant": true
    },
    {
      "inputs": [],
      "name": "addFunds",
      "outputs": [],
      "stateMutability": "payable",
      "type": "function",
      "payable": true
    },
    {
      "inputs": [],
      "name": "test1",
      "outputs": [],
      "stateMutability": "nonpayable",
      "type": "function"
    },
    {
      "inputs": [],
      "name": "test2",
      "outputs": [],
      "stateMutability": "nonpayable",
      "type": "function"
    },
    {
      "inputs": [
        {
          "internalType": "uint256",
          "name": "withdrawAmount",
          "type": "uint256"
        }
      ],
      "name": "withdraw",
      "outputs": [],
      "stateMutability": "nonpayable",
      "type": "function"
    },
    {
      "inputs": [],
      "name": "getAllFunders",
      "outputs": [
        {
          "internalType": "address[]",
          "name": "",
          "type": "address[]"
        }
      ],
      "stateMutability": "view",
      "type": "function",
      "constant": true
    },
    {
      "inputs": [
        {
          "internalType": "uint8",
          "name": "index",
          "type": "uint8"
        }
      ],
      "name": "getFunderAtIndex",
      "outputs": [
        {
          "internalType": "address",
          "name": "",
          "type": "address"
        }
      ],
      "stateMutability": "view",
      "type": "function",
      "constant": true
    }
  ],
  "bytecode": "0x608060405234801561001057600080fd5b50336000806101000a81548173ffffffffffffffffffffffffffffffffffffffff021916908373ffffffffffffffffffffffffffffffffffffffff1602179055506103e8600181905550610b0c806100696000396000f3fe6080604052600436106100955760003560e01c80636fbbb55d116100595780636fbbb55d146101605780638da5cb5b1461018b578063a26759cb146101b6578063af7f2c9b146101c0578063f42c13bf146101eb5761009c565b80630a8e8e01146100a15780630a93cf33146100cc5780632e1a7d4d1461010957806366e41cb7146101325780636b59084d146101495761009c565b3661009c57005b600080fd5b3480156100ad57600080fd5b506100b6610216565b6040516100c391906108da565b60405180910390f35b3480156100d857600080fd5b506100f360048036038101906100ee9190610721565b61021f565b6040516101009190610842565b60405180910390f35b34801561011557600080fd5b50610130600480360381019061012b91906106f8565b61025f565b005b34801561013e57600080fd5b506101476102f6565b005b34801561015557600080fd5b5061015e610386565b005b34801561016c57600080fd5b50610175610416565b604051610182919061085d565b60405180910390f35b34801561019757600080fd5b506101a061055c565b6040516101ad9190610842565b60405180910390f35b6101be610580565b005b3480156101cc57600080fd5b506101d56106a0565b6040516101e291906108da565b60405180910390f35b3480156101f757600080fd5b506102006106a6565b60405161020d919061087f565b60405180910390f35b60006064905090565b6000600460008360ff16815260200190815260200160002060009054906101000a900473ffffffffffffffffffffffffffffffffffffffff169050919050565b8067016345785d8a00008111156102ab576040517f08c379a00000000000000000000000000000000000000000000000000000000081526004016102a2906108ba565b60405180910390fd5b3373ffffffffffffffffffffffffffffffffffffffff166108fc839081150290604051600060405180830381858888f193505050501580156102f1573d6000803e3d6000fd5b505050565b60008054906101000a900473ffffffffffffffffffffffffffffffffffffffff1673ffffffffffffffffffffffffffffffffffffffff163373ffffffffffffffffffffffffffffffffffffffff1614610384576040517f08c379a000000000000000000000000000000000000000000000000000000000815260040161037b9061089a565b60405180910390fd5b565b60008054906101000a900473ffffffffffffffffffffffffffffffffffffffff1673ffffffffffffffffffffffffffffffffffffffff163373ffffffffffffffffffffffffffffffffffffffff1614610414576040517f08c379a000000000000000000000000000000000000000000000000000000000815260040161040b9061089a565b60405180910390fd5b565b6060600060025467ffffffffffffffff81111561045c577f4e487b7100000000000000000000000000000000000000000000000000000000600052604160045260246000fd5b60405190808252806020026020018201604052801561048a5781602001602082028036833780820191505090505b50905060005b600254811015610554576004600082815260200190815260200160002060009054906101000a900473ffffffffffffffffffffffffffffffffffffffff16828281518110610507577f4e487b7100000000000000000000000000000000000000000000000000000000600052603260045260246000fd5b602002602001019073ffffffffffffffffffffffffffffffffffffffff16908173ffffffffffffffffffffffffffffffffffffffff1681525050808061054c90610992565b915050610490565b508091505090565b60008054906101000a900473ffffffffffffffffffffffffffffffffffffffff1681565b6000339050600360008273ffffffffffffffffffffffffffffffffffffffff1673ffffffffffffffffffffffffffffffffffffffff16815260200190815260200160002060009054906101000a900460ff1661069d576000600260008154809291906105eb90610992565b9190505590506001600360008473ffffffffffffffffffffffffffffffffffffffff1673ffffffffffffffffffffffffffffffffffffffff16815260200190815260200160002060006101000a81548160ff021916908315150217905550816004600083815260200190815260200160002060006101000a81548173ffffffffffffffffffffffffffffffffffffffff021916908373ffffffffffffffffffffffffffffffffffffffff160217905550505b50565b60025481565b60007f48656c6c6f20576f726c64210000000000000000000000000000000000000000905090565b6000813590506106dd81610aa8565b92915050565b6000813590506106f281610abf565b92915050565b60006020828403121561070a57600080fd5b6000610718848285016106ce565b91505092915050565b60006020828403121561073357600080fd5b6000610741848285016106e3565b91505092915050565b60006107568383610762565b60208301905092915050565b61076b8161093f565b82525050565b61077a8161093f565b82525050565b600061078b82610905565b610795818561091d565b93506107a0836108f5565b8060005b838110156107d15781516107b8888261074a565b97506107c383610910565b9250506001810190506107a4565b5085935050505092915050565b6107e781610951565b82525050565b60006107fa60218361092e565b915061080582610a0a565b604082019050919050565b600061081d60268361092e565b915061082882610a59565b604082019050919050565b61083c8161097b565b82525050565b60006020820190506108576000830184610771565b92915050565b600060208201905081810360008301526108778184610780565b905092915050565b600060208201905061089460008301846107de565b92915050565b600060208201905081810360008301526108b3816107ed565b9050919050565b600060208201905081810360008301526108d381610810565b9050919050565b60006020820190506108ef6000830184610833565b92915050565b6000819050602082019050919050565b600081519050919050565b6000602082019050919050565b600082825260208201905092915050565b600082825260208201905092915050565b600061094a8261095b565b9050919050565b6000819050919050565b600073ffffffffffffffffffffffffffffffffffffffff82169050919050565b6000819050919050565b600060ff82169050919050565b600061099d8261097b565b91507fffffffffffffffffffffffffffffffffffffffffffffffffffffffffffffffff8214156109d0576109cf6109db565b5b600182019050919050565b7f4e487b7100000000000000000000000000000000000000000000000000000000600052601160045260246000fd5b7f4f6e6c79206f776e65722063616e2063616c6c20746869732066756e6374696f60008201527f6e00000000000000000000000000000000000000000000000000000000000000602082015250565b7f596f752063616e2774207769746864726177206d6f7265207468616e20302e3160008201527f2065746865720000000000000000000000000000000000000000000000000000602082015250565b610ab18161097b565b8114610abc57600080fd5b50565b610ac881610985565b8114610ad357600080fd5b5056fea264697066735822122042fbafbfb4d13365a6e51b17ca818e6d13ff8985d869fc1ab6724368d10e445a64736f6c63430008040033",
  "immutableReferences": {},
  "source": "// SPDX-License-Identifier: MIT\npragma solidity >=0.4.22 <0.9.0;\nimport \"./Owner.sol\";\nimport \"./Logger.sol\";\nimport \"./IFaucet.sol\";\n\ncontract Faucet is Owner, Logger, IFaucet {\n    uint public numOfFunders;\n\n    mapping(address => bool) private funders;\n    mapping(uint => address) private lutFunders;\n\n    modifier limitWithdraw(uint withdrawAmount) {\n        require(\n            withdrawAmount <= 100000000000000000,\n            \"You can't withdraw more than 0.1 ether\"\n        );\n        _;\n    }\n\n    receive() external payable {}\n\n    function emitLog() public pure override returns (bytes32) {\n        return \"Hello World!\";\n    }\n\n    function addFunds() external payable override {\n        address funder = msg.sender;\n\n        if (!funders[funder]) {\n            uint index = numOfFunders++;\n            funders[funder] = true;\n            lutFunders[index] = funder;\n        }\n    }\n\n    function test1() external onlyOwner {\n        //some managing staff that only admin should have access to\n    }\n\n    function test2() external onlyOwner {\n        //some managing staff that only admin should have access to\n    }\n\n    function withdraw(\n        uint withdrawAmount\n    ) external override limitWithdraw(withdrawAmount) {\n        payable(msg.sender).transfer(withdrawAmount);\n    }\n\n    function getAllFunders() external view returns (address[] memory) {\n        address[] memory _funders = new address[](numOfFunders);\n\n        for (uint i = 0; i < numOfFunders; i++) {\n            _funders[i] = lutFunders[i];\n        }\n\n        return _funders;\n    }\n\n    function getFunderAtIndex(uint8 index) external view returns (address) {\n        return lutFunders[index];\n    }\n}\n\n/*\n// const instance = await Faucet.deployed();\n\n// instance.addFunds({from: accounts[0], value: \"2000000000000000000\"})\n// instance.addFunds({from: accounts[1], value: \"2000000000000000000\"})\n\n// instance.withdraw(\"500000000000000000\", {from: accounts[1]})\n\n// instance.getFunderAtIndex(0)\n// instance.getAllFunders()\n*/\n",
  "sourcePath": "/Users/sahinmallik/Desktop/MY_FOLDER/WEB DEV/blockchain/faucet/contracts/FaucetContract.sol",
  "compiler": {
    "name": "solc",
    "version": "0.8.4+commit.c7e474f2.Emscripten.clang"
  },
  "schemaVersion": "3.3.3",
  "updatedAt": "2023-03-07T15:18:26.026Z",
  "networkType": "ethereum",
  "devdoc": {
    "kind": "dev",
    "methods": {},
    "version": 1
  },
  "userdoc": {
    "kind": "user",
    "methods": {},
    "version": 1
  }
}